:1000000000800020BD010000153C0000D93B00002D
:10001000D93B0000D93B0000D93B0000D93B000090
:10002000D93B0000D93B0000D93B0000153C000043
:10003000153C0000D93B0000153C0000C93B000006
:10004000153C0000153C0000153C0000153C00006C
:10005000153C0000153C0000153C0000153C00005C
:10006000153C0000153C0000153C0000153C00004C
:10007000153C0000153C0000153C0000153C00003C
:10008000153C0000153C0000153C0000153C00002C
:10009000153C0000153C0000153C0000153C00001C
:1000A000153C0000153C0000153C0000153C00000C
:1000B000153C0000153C0000153C0000153C0000FC
:1000C000153C0000153C0000153C0000153C0000EC
:1000D000153C0000153C0000153C0000153C0000DC
:1000E000153C0000153C0000153C0000153C0000CC
:1000F000153C0000B5510000153C0000B157000050
:10010000153C0000D15C0000153C0000153C0000CF
:10011000153C0000153C0000153C0000153C00009B
:10012000153C0000153C0000153C0000153C00008B
:10013000153C0000153C0000153C0000153C00007B
:10014000153C0000153C0000153C0000153C00006B
:10015000153C0000153C0000153C0000153C00005B
:10016000153C000031400000153C0000153C00002B
:10017000153C0000153C0000153C0000153C00003B
:10018000153C0000153C0000153C0000153C00002B
:10019000153C0000153C0000153C0000153C00001B
:1001A000153C0000153C0000153C0000153C00000B
:1001B000153C0000153C0000153C0000574B4CF26C
:1001C000205210B51A804DF628121A8000BF00BFC9
:1001D00003F024FD524B4FF010621A60514A9A60AE
:1001E000514ADA60A3F53043203B1A6812F480725A
:1001F00004D14E490A604FF4A8521A604C4B1A7849
:10020000110703D51A7842F008021A70494B4A4C7C
:100210004A482A221A704A4A00239918A14203D256
:10022000195899500433F8E7464B474900228B424E
:1002300002D243F8042BFAE74448454900235A58B0
:100240001A500433B3F5DE7FF9D1424B424A802184
:1002500003F8011B9342FBD1404B3C4A1A60404BD0
:100260000A221A70A3F5805324225A70A0221A7011
:100270009A799207FCD59A79D406FCD4394A9379B5
:1002800003F00C03082B374BF9D103221A714022DB
:100290005A719A799006FCD5324A9179314B4906C8
:1002A000FBD5314A314911600221516020221A7078
:1002B0009A7902F00C020C2AFAD12D4B2D4A1A60C1
:1002C0002D4B2E4A1A6000225A60072243F8042C54
:1002D0002B4AC3F80C2D62B603F06CFD134B1B6860
:1002E000DA0705D5274803F0C9FC274B274A1A60CF
:1002F000274B1B785B0609D5234C244A236893427D
:1003000004D1204803F0BAFC0023236005F05AFF13
:1003100003F08AFC04F0D4FBFEE700BF0E2005408A
:1003200030800440823F04000100002B14D00340C1
:1003300002D0074000E00740F092FF1FA08F0000AE
:100340006087FF1FF092FF1F6497FF1F0082FF1F4F
:100350000000000000E400E05FE400E008ED00E0E1
:100360000050064000400640448004400000030165
:1003700004800440C010050014E000E0FF76010096
:10038000000020205FA75A571CE00340A5C3945AE1
:1003900000F00740FFFFFFFFFFFFFFFFFFFFFFFF32
:1003A000FFFFFFFFFFFFFFFFFFFFFFFFFFFFFFFF5D
:1003B000FFFFFFFFFFFFFFFFFFFFFFFFFFFFFFFF4D
:1003C000FFFFFFFFFFFFFFFFFFFFFFFFFFFFFFFF3D
:1003D000FFFFFFFFFFFFFFFFFFFFFFFFFFFFFFFF2D
:1003E000FFFFFFFFFFFFFFFFFFFFFFFFFFFFFFFF1D
:1003F000FFFFFFFFFFFFFFFFFFFFFFFFFFFFFFFF0D
:10040000FFFFFFFFFFFFFFFFFFFFFFFFFEFFFFFFFD
:1004100010B5054C237833B9044B13B10448AFF33E
:1004200000800123237010BDF092FF1F0000000028
:10043000A08F000008B5064B1BB106480649AFF374
:1004400000800648036813B1054B03B1984708BD07
:1004500000000000A08F0000F492FF1FF092FF1F29
:100460000000000000207047704700BF0020704768
:1004700000487047C08B000000487047B48B0000F4
:1004800000487047A88B000000487047CC8B0000E4
:10049000027890B110F8083F9342FBD06BB9037813
:1004A000012B03D010F8083D012BFBD14378012B21
:1004B00003D908384378012BFBD17047027890B1FB
:1004C000012A05D110F8083F002BFBD1083803E0C2
:1004D00010F8083D9342FBD04378012B03D908382C
:1004E0004378012BFBD1704700EB81014A61012069
:1004F000704700BF10B50446806803689B68217B85
:1005000098470020207660760123E3762073E0612F
:1005100084F8200010BD00BF007B7047032914BF82
:1005200000200120704700BF012914BF00200120D6
:10053000704700BF00EB81014869704790F82000C8
:10054000704700BF10B4029BC47E022C23D00176FA
:100550004276DA7802F00302032A1CD193F90220D2
:10056000002A18DA9A7990F82110914238BF80F861
:10057000212004EB44020244997801F00F015173E9
:100580009B889373D37B03F0FC03012161F3870302
:10059000D3730C44C4765DF8044B7047A0F104009B
:1005A000D0E700BF704700BF10B586B0047B472A74
:1005B00014D0532A02D0392A17D107E0037BC3F3A2
:1005C0000002D24362F3000303730EE0037BC3F324
:1005D0004002D24362F34103037306E0037BC3F39B
:1005E0008002D24362F382030373037BA3420ED0E3
:1005F00079B106AC04F8013D002200920123019379
:10060000029408461146022303F000F902E000209C
:1006100000E0002006B010BD2DE9F843814600201F
:10062000014603F03BFB0120014603F037FB4FF48A
:10063000F073013B7FF4FDAF082501240026274617
:100640004FF4A0783046394603F028FB4346013B7F
:100650007FF4FDAF14EA090F384614BF394631461E
:1006600003F01CFBA023013B7FF4FDAF3046314675
:1006700003F014FB4FF4F073013B7FF4FDAF640013
:10068000E4B2013DDED10020012103F007FB4FF46D
:10069000A073013B7FF4FDAF0120014603F0FEFA99
:1006A000012003F071FBBDE8F88300BF2DE9F041A4
:1006B0000E46A0F12003DBB2942B05D8203800EBC6
:1006C00040000E4B184400E0002047789EB1002403
:1006D0000A2547F080083846FFF79EFF284603F0BA
:1006E00053FB4046FFF798FF284603F04DFB0134CB
:1006F000E4B2B442EFD1BDE8F08100BF3488FF1FFF
:1007000010B50C4B1B7803F18043013B50F82300DC
:1007100006F046F8C0B2084B1B78984209D9C31AB4
:10072000DCB29A202146FFF7C1FF95202146FFF752
:10073000BDFF10BD3894FF1F2294FF1F08B508426B
:1007400008D082B91846FFF767FF142003F01CFB9E
:10075000012208E03AB143F08000FFF75DFF14206A
:1007600003F012FB0022104608BD00BF70B588B030
:10077000044690F82030002B29D0184B1A68C36922
:10078000D31A002B25DB027C417C08AB23F8121D19
:100790008068217B04AD00950025019501F002FCE5
:1007A000054668B9BDF80E30022B09D9606938B129
:1007B000026804A90091166821460022DBB2B04706
:1007C000064B1B6894F821201344E36102E00025E6
:1007D00000E00025284608B070BD00BF5094FF1F00
:1007E0002DE9F0470646DFF80491DFF804A1DFF8B1
:1007F000F88055E0771C99F8003063B1204605F089
:1008000009FD20B1204606F061F8C4B203E020469D
:1008100006F050F8C4B25E2C08D17378002B5DD07E
:10082000B71C5E2B59D01C46022300E00023A4F124
:100830002002D2B2942A05D8203C04EB440454444C
:100840003E4601E03E460024A57805F00F051D4315
:100850002846022198F800201D23FFF76FFF88F833
:1008600000001F4F284604213A783823FFF766FF1F
:1008700038701C4F284601213A782A23FFF75EFF83
:1008800038706CB164782046FFF7C6FE0A2003F08A
:100890007BFA44F08000FFF7BFFE0A2003F074FAF1
:1008A0003478002CA6D10F4C0020012122782A2375
:1008B000FFF744FF20700A4C0020042122783823DF
:1008C000FFF73CFF2070084C0020022122781D23F6
:1008D000FFF734FF2070BDE8F0871C460023ABE72C
:1008E0000D93FF1F5A93FF1F3C94FF1F4493FF1F5C
:1008F0003488FF1F2DE9F84F07461E4B1B78002B4D
:1009000035D01D4B1B781BB901221B4B1A7005E01B
:10091000FFF7F6FE184B1A7801321A70164B93F84F
:100920000090144B93F800A0134C6FF04048DFF890
:100930004CB0267806EB080357F823501DB94FF04A
:10094000010323700DE058462946524605F058FF32
:1009500028B905EB0A00FFF743FFBDE8F88F013621
:10096000267023784B45E4D10022034B1A70BDE872
:10097000F88F00BF2294FF1F3894FF1F2894FF1F99
:1009800070B50C4611B1304B187038E09A38032816
:1009900034D8DFE800F0210E02082C4B1868FFF76E
:1009A00077FD04462AE0294B1868FFF787FD0446C7
:1009B00024E0264B1C680CB3637823B92046FFF76C
:1009C00067FD04461AE0FF2B04D1083C6378012B35
:1009D000FBD113E0083411E01C4B1C6874B1637840
:1009E00023B92046FFF76AFD044607E0012B04D136
:1009F00008346378FF2BFBD100E0083C14B3134BA1
:100A00001D68AC421ED07DB1686805F0C9FEC6B253
:100A1000AB789E4204D9F11A9A20C9B2FFF746FE7C
:100A200095203146FFF742FE084B1C606068A478B1
:100A300014B9FFF7D5FE70BDFFF7D2FE9A2021460C
:100A4000FFF734FE70BD00BF5993FF1F1893FF1FBF
:100A500070B504460B1FDBB2692B00F209827C4B98
:100A6000043903EB410513F81100822813D1794BA7
:100A70001B78002B31D0012C40F0FA81012B02D0E1
:100A8000022B04D070BD7448FFF734FF70BD73486B
:100A9000FFF730FF70BD802820D16E4B1B78EBB183
:100AA000012C40F0E5816E4A1278002A00F0E081C6
:100AB0006C4A1278002A00F0DB81012B02D0022B55
:100AC00004D006E06448FFF71BFE02E06348FFF72E
:100AD00017FE0022634B1A7070BD634D634B1B7889
:100AE00023B9634A1278002A00F0A780012C40F055
:100AF000A48001215F4A1170B3B15D4B1B789BB19B
:100B00000023544A1370564A1370564A13706228D1
:100B100002D06D2804D070BD02224E4B1A7070BDF9
:100B200001224C4B1A7070BD4A4B1B78012B02D02E
:100B3000022B3CD070BD504B1B78834230D0A0F1CB
:100B40006103152B0CD8DFE803F02E0D0F111315E0
:100B500017191B0B0B1D1F0B0B210B2325270B2913
:100B6000002121E045491FE045491DE045491BE0C2
:100B7000454919E0454917E0454915E0454913E065
:100B8000454911E045490FE045490DE045490BE075
:100B9000454909E0454907E0454905E0454903E085
:100BA0009C20002100E04449FFF7EAFE70BD324B73
:100BB0001B7883423AD0A0F16103152B0CD8DFE8F3
:100BC00003F0380D0F11131517191B1D1F212325B5
:100BD00027290B2B2D2F313300212BE0374929E01A
:100BE000374927E0374925E0374923E0374921E0F5
:100BF00037491FE037491DE037491BE0374919E005
:100C0000374917E0374915E0374913E0374911E014
:100C100037490FE037490DE037490BE0374909E024
:100C2000374907E0374905E0374903E09C200021B8
:100C300000E03649FFF7A4FE70BD0E4B1B78002B79
:100C400066D0002C64D100220A4B1A7070BD00BF20
:100C50006087FF1F1894FF1F80740000F871000068
:100C60002294FF1F3894FF1FD887FF1F1B94FF1F7C
:100C70001A94FF1F3A94FF1F5993FF1FC488000066
:100C8000D48800002C8900006C8900008C89000049
:100C9000806C0000C4890000DC890000F489000039
:100CA0000C8A0000548A0000848A0000CC8A00006C
:100CB000E48A0000248B00009C880000B86C0000CF
:100CC000D06C0000406D0000A06D0000D06D0000F1
:100CD000E86D0000086E0000206E0000706E0000DD
:100CE000886E0000986E0000006F0000306F0000FA
:100CF000606F0000C86F000048700000E8700000DE
:100D0000A0710000B8710000D0710000906C00006C
:100D1000584B1B78002B38D0012C36D100F15103F1
:100D2000DBB2052B2CD9544B1B78DBB9534B1B780A
:100D3000C3B9534B1B78ABB9524B1B7893B9A0F195
:100D40006103DBB2192B09D9A0F13003092B09D8B3
:100D50004D4B1B7833B94D4B1B781BB910B1FF2895
:100D600004D10DE000224A4B1A7009E0484B1E786E
:100D70000E2E05D8721C1A7005F0A8FD454B98552B
:100D8000434B1B780021434AD1542B78A3F1200216
:100D9000D2B2942A6CD84048203B03EB430142185E
:100DA00000233E4D2B703E4D2B603E4D2B705578F1
:100DB000002D5DD05CB9937803F03003102B03D085
:100DC000202B4CD01BB970BD45F0800548E0405C3D
:100DD000002335490B7035490B6035490B60012CF8
:100DE00015D1852802D09E2806D00AE0314B19780B
:100DF00081F00101197004E02F4B197881F0010195
:100E0000197092F90230002BBCBF274B1D702A4B82
:100E10001B7803B3937813F0400F1CD0012C0CD136
:100E2000E020FFF7F9FB2A20FFF7F6FBE020FFF7B1
:100E3000F3FB2846FFF7F0FB70BDE020FFF7ECFB6B
:100E40002846FFF7E9FB9CB9E020FFF7E5FBAA2065
:100E5000FFF7E2FB70BD2846FFF7DEFB70BDAA2559
:100E6000002311490B7011490B6011490B60CEE74B
:100E700070BD00BF1894FF1F1493FF1F3B94FF1F0A
:100E80002494FF1F2394FF1F5893FF1F1994FF1FE3
:100E90002294FF1F2894FF1F3488FF1F5993FF1FC0
:100EA0001893FF1F3894FF1F2194FF1F1093FF1FFB
:100EB0001C94FF1F4493FF1F2094FF1F08B50120BF
:100EC0001146FFF7C5FD08BD08B500201146FFF724
:100ED000BFFD08BD38B50D461446314B1A70C2F33C
:100EE0000003D8B201F00102824204D02D4A1370EF
:100EF0006821FFF7ADFDC4F34003D8B2C5F340024B
:100F0000824204D0284A13706621FFF7A1FDC4F382
:100F10008003D8B2C5F38002824204D0234A137002
:100F20006A21FFF795FDC4F3C003D8B2C5F3C00230
:100F3000824204D01E4A13706C21FFF789FDC4F36E
:100F40000013D8B2C5F30012824204D0194A1370BC
:100F50006921FFF77DFDC4F34013D8B2C5F34012F9
:100F6000824204D0144A13706721FFF771FDC4F365
:100F70008013D8B2C5F38012824204D00F4A137096
:100F80006B21FFF765FDC4F3C014E0B2B0EBD51FD1
:100F900004D00B4B1C706D21FFF75AFD38BD00BF0C
:100FA0003994FF1F1493FF1F5893FF1F2494FF1FB2
:100FB0001B94FF1F3B94FF1F1994FF1F2394FF1FD7
:100FC0001A94FF1F08B5344802F034FB334B1B68FA
:100FD000334A12680AB19A1A00E0002230490B60C5
:100FE000304B1878C8B1304B1B68B3F57A7F0DD3FE
:100FF0002E4B1B681A444F2A02D82C4B1A6011E062
:1010000000222A4B1A60FFF707FB0BE01A4426491F
:101010000A600022254B1A6004E00023224A136074
:10102000224A1360022002F05DFE00282FD1204BDF
:101030001B78002B2BD000231E4A13701E4A1370FE
:101040001E4A13701E4A13701E4A13701E4A1370F4
:101050001E4A13701E4A13701E4A13701E4A1370E4
:101060001E4A13701E4A13701E4A13701E4A1370D4
:101070001E4A13701E4A13701E4A13701E4A1360D4
:101080001E4A13701E4A1370094A137008BD0122CC
:10109000074B1A7008BD00BF5C93FF1F5094FF1FE1
:1010A0001C93FF1F2194FF1F1093FF1F1C94FF1F11
:1010B0005B93FF1F4493FF1F2094FF1F5A93FF1F52
:1010C0003C94FF1F0D93FF1F3994FF1F5893FF1F80
:1010D0001994FF1F1493FF1F3B94FF1F2494FF1FBD
:1010E0002394FF1F1B94FF1F1A94FF1F3A94FF1FA6
:1010F0001894FF1F5993FF1F1893FF1F2294FF1F7F
:101100003894FF1F30B48160194B03603C33436057
:101110000023C36180F82030437308228273C27BAE
:1011200002F0FC020F2464F38702C2730374437459
:10113000847C04F0FC04012262F387048474C27688
:1011400083760376436181B18B6F2BB10A4601230D
:101150001D46D46F2CB900E000251E3541F825004E
:1011600003E001330432102BF2D130BC704700BFD2
:10117000406C000010B582B0084C0023237041F091
:1011800002018DF804108DF8052001A8022102F05B
:101190006BFC0123237002B010BD00BF1010FE4392
:1011A00010B5054C00232370084602F04BFC02F0FA
:1011B000A5FC0123237010BD1010FE4310B504469A
:1011C000F821FFF7EDFF00F0C000402821D002D841
:1011D00000283BD010BD802802D0C02832D010BDDE
:1011E0002046D821FFF7DCFF10F0020F08D120467F
:1011F000D821C922FFF7BEFF0222194B1A7010BD79
:101200002046D821CB22FFF7B5FF0322144B1A70DA
:1012100010BD2046D821FFF7C3FF10F0020F08D100
:101220002046D821CB22FFF7A5FF03220C4B1A70D2
:1012300010BD2046D821C922FFF79CFF0222084B8F
:101240001A7010BD0122064B1A7010BD2046D8211D
:10125000D122FFF78FFF0022014B1A7010BD00BF93
:101260000C93FF1F2DE9F8430546DFF8D0904FF4AB
:10127000A276C9F80060DFF8C880012488F8004031
:101280002B4F3C7002F0B0FBC9F8006088F80040BA
:101290003C70284B1E600024274B1C702846882178
:1012A0001822FFF767FF284678212022FFF762FF08
:1012B000284678212246FFF75DFF4FF6FF74682627
:1012C00028463146FFF76CFF10F0010F1ED1013C9C
:1012D000A4B2002CF4D115E028462146FFF760FFA8
:1012E00010F0040FF8D02846FFF768FF2846C82101
:1012F0002022FFF73FFF284680210122FFF73AFF17
:10130000002000E0FF2040B2BDE8F8832846D82145
:10131000C122FFF72FFF2846D0216022FFF72AFFC6
:101320002846E8210422FFF725FFE824D4E700BF80
:101330001010FE430CB004408C12FE4310B0044069
:101340009012FE4308B50820002102F0D9FC0720C6
:10135000012102F0D5FC0020012102F0D1FC012086
:10136000014602F0CDFC0220014602F0C9FC00203B
:10137000012102F093FC0120014602F08FFC0720BE
:10138000002102F08BFC142002F0FEFC072001215A
:1013900002F084FC142002F0F7FCAA20FFF73CF9CD
:1013A0004FF4FA7002F0F0FC0448FFF75BFFC8202E
:1013B00002F0EAFC024A034B5A6108BD5C93FF1F2E
:1013C0004893FF1F2093FF1F0B4A026041600022D9
:1013D0000277C28380F8302080F8312080F83220F4
:1013E00080F8382000F12002C0F809200261017A5B
:1013F0004175017582617047206C00002DE9F04F46
:101400009DB00546894690461F468668047B002CA1
:1014100040F0E480002180F8211033681B683046DA
:1014200098478246002800F0DB80D0F800B0BBF17E
:10143000000F00F0D78005F10D030493036087715E
:10144000A86808AB009300210A46082300F08CFE30
:101450008DF81F00002840F0CB809DF820300593C8
:10146000CAF800B03368D3F804C0304649460022B9
:101470004346E04703462873002800F0B5809DF8F6
:101480002720AA73A86800210A4600F0BDFE8DF847
:101490001F0050B18AF8064033689B683046297BAC
:1014A00098472C739DF81F40A5E000238AF806306A
:1014B00033681B683046297B9847002800F09680E7
:1014C000059B122B28BF1223877143B1297B08AAE1
:1014D0000092A868002200F047FE8DF81F009DF8DA
:1014E0001F30002B73D19DF83180B8F1000F16D05A
:1014F00000260DAF05F1040AB14638465146FFF704
:1015000063FFA868297B00974A46F3B200F056FEB5
:10151000EB7E022B03D00136F3B29845EDD8EB7E7B
:10152000022B03D0D1238DF81F3050E0A868297B0F
:101530000222049B00F06EFA8DF81F004FF47A70BF
:1015400002F022FCA868297B00222B7E00F072FEAC
:101550008DF81F0000283AD14FF47A7002F014FC85
:10156000A846284600210A4602F082F98DF81F009D
:1015700068BB284600210A460B4602F063F98DF845
:101580001F001CAA1E4B42F83C3D2846002102F0D9
:1015900023F9202300264FF001090DF11F075B10EE
:1015A0008DF81F300096CDF80490029740463146E2
:1015B0003246022302F02AF9192002F0E5FB9DF8D9
:1015C0001F30002BEBD1012385F8203013E02B686E
:1015D0009B68284698479DF81F400CE0D9240AE0F4
:1015E000D62408E0D72406E0D42404E0D62402E080
:1015F000CAF800B0EBE720461DB0BDE8F08F00BF91
:10160000306C000070B582B004460E46154690F866
:101610003030042B00F2DF80DFE803F0030D1F26DB
:10162000530002230372D0F8092002614375037549
:10163000012380F8303004F1100031462A4602F0D0
:101640008BF90346002800F0CD80D4F809301A78D1
:1016500084F831205B7884F8323004F12203C4F836
:101660000930032384F8303094F83230023B1F2BCA
:101670001ED8DFE803F0131D10161D1D1D1D1D1DB6
:101680001D1D1D1D1D1D1D1D1D1D1D1D1D1D1D1D8A
:101690001D1D1D1D1D19002384F8333007232372DF
:1016A00006E00523237203E094F83130023B2372F5
:1016B000D4F809302361237A63752375042384F8F1
:1016C000303094F83230042B11D0052B3CD0022B53
:1016D0005AD104F1100031462A4602F03DF9034682
:1016E00000287FD094F8253084F834306AE004F183
:1016F000100031462A4602F02FF90346002871D027
:1017000094F82530032B5DD194F82630012B59D164
:1017100094F8383023B194F82730002B52D003E0EE
:1017200094F82730012B4DD1012384F8333094F8FD
:10173000223084F8363094F8233084F8373094F827
:10174000273084F835303DE004F1100031462A4658
:1017500002F002F90346002844D094F83330002BFD
:1017600030D0606800282DD0056894F8341094F8C3
:10177000362094F8373094F83560009604F120064E
:1017800001962D68A8471DE094F83120237F13B1FE
:10179000012B04D014E0023AE28301232377E38B88
:1017A000EBB12A8862B1013BE383336801333360D4
:1017B0002A88013A92B22A80E38B83B1002AF2D1BF
:1017C000E38B53B904F12003C4F80930002384F8F3
:1017D0003030012306E0012304E0002302E000236F
:1017E0002377EDE7184602B070BD00BF30B583B077
:1017F0000546ADF8021002AC44F8042D06E0284678
:1018000021460DF10202FFF7FDFE18B1BDF80230CE
:10181000002BF4D103B030BD10B5074C204600F0CA
:1018200089F806482146FFF76DFC054B00221A7324
:10183000044A1A6010BD00BF5C93FF1F2093FF1F76
:101840004893FF1F688B000030B40D4619B1C37C6C
:101850008B4202D10EE0083015E002460223947E4E
:10186000AC4205D00133DBB20732102BF7D107E0D1
:1018700043B100E00123C3EBC3030833184402E083
:10188000002000E0002030BC704700BF70B4064666
:10189000C80941D1072B41D8002A43D0F079072845
:1018A00040D13DE0A87E30B10134E4B20735102CC0
:1018B000F8D100203CE0002C3AD000E0012499B996
:1018C00042B1C4EBC403334441221A73F3790133A8
:1018D000F37104E0C4EBC403334401221A73C4EB74
:1018E000C4042644307B23E04FF0000061F3C500C0
:1018F00042B140F04000F3790133DBB2F37163F39E
:10190000020003E06FF3861063F30200C4EBC4042B
:1019100026443073C0B20BE0002009E0002007E04D
:10192000002005E0F07C0028C8D035460224B9E745
:1019300070BC7047F0B4164B03600023C37103738F
:10194000012242738373051D85600371082343716F
:10195000837903F0FC030F2161F38703837103464E
:1019600000F1690700211646D9741E755975C2EB3E
:10197000C2040444A56007330132BB42F4D1002302
:1019800080F8B8301122034B1A70F0BC704700BFCA
:10199000988B00004594FF1F70B40E4619B1C37CAC
:1019A0008B4203D10FE000F1080311E0044602234B
:1019B000A57EB54205D00133DBB20734102BF7D139
:1019C0001DE0F3B100E00123C3EBC303083303447C
:1019D000CBB11868C8B15B79CBB10178914217D00F
:1019E000591EC9B2013101EB4101014402E0037803
:1019F00093420DD003308842F9D1002008E0002046
:101A000006E0002004E0002002E0002000E00020CA
:101A100070BC7047F0B41F46F3B119B1C37C8B4260
:101A200002D10EE0083011E005460224AE7E8E425F
:101A300005D00134E4B20735102CF7D10EE07CB1AB
:101A400000E00124C4EBC4040834204450B1017107
:101A500007604271002006E0D82004E0D62002E0B2
:101A6000D62000E0D620F0BC704700BF2DE9F84F2B
:101A7000834615461E469DF82880002400EB81070A
:101A80004FF0640A00E00134B86F0368D3F804C073
:101A9000294632464346E047E02812D145B9584628
:101AA000E8210122FFF766FB662002F06DF912E0E3
:101AB00005F11E035BF8230003685B693146984714
:101AC00009E00D2806D1E3B2022B2FD8504602F0D0
:101AD0005BF9D8E768BBB86F0368D3F800C0294644
:101AE00032464346E04781460D2806D1E3B2022B39
:101AF00006D8504602F048F9C5E7B9F1000F18D0F2
:101B000055B95846E8210122FFF734FB662002F060
:101B10003BF94846BDE8F88F1E355BF825000368A1
:101B20005B69314698474846BDE8F88F0D20BDE80F
:101B3000F88FBDE8F88F00BF2DE9F84F04469B46AB
:101B4000244B1D6805F59C5508354FF00008C2462A
:101B500040461E4641EA020935E02046F0214A4649
:101B6000FFF708FBC8270CE020463946FFF718FBB3
:101B700010F0800F05D02046C8218022FFF7FAFA26
:101B800003E033685B1B002BEEDB2046F821FFF7F8
:101B900007FB00F00F00042803D00E280CD0BDE88E
:101BA000F88F08F101081FFA88F8BBF1000F0AD07E
:101BB000D84508D1BDE8F88F0AF1010A5FFA8AFA20
:101BC000BAF1030F03D033685B1B002BC5DBBDE804
:101BD000F88F00BF5094FF1F2DE9F04F87B00446E7
:101BE0008B46029200934F787B1EDBB23F2B00F2B4
:101BF000D4806C4B1B6803F59C53083301938B789E
:101C000003F00103002B4FF0E8010CBF40228022BB
:101C1000FFF7B0FA0099002900F0AE804FF0000AFB
:101C20008DF813A00597009A059B9A4228BF1A4683
:101C30000392D6B29DF813105B4A1170122001F086
:101C400001FF1098314601F00FFF012356490B7038
:101C5000204638213246FFF78DFA9BF800202046B7
:101C6000F02142F02002FFF785FAC82520462946D8
:101C7000FFF796FA10F0800FF8D02046C821802296
:101C8000FFF778FA2046F821FFF78AFA00F00F00F4
:101C9000D146D046F8275AE0062816D00E280BD099
:101CA00004286BD109F101091FFA89F9029A1AB3C4
:101CB000914521D1054662E008F101085FFA88F8F4
:101CC000B8F1030F18D1054659E020463946FFF711
:101CD00067FA80F02000C0F340139BF8022063F302
:101CE00000028BF80220002B20464FF0E8010CBFC9
:101CF00040228022FFF73EFA204638215246FFF765
:101D000039FA20461021109B1A78FFF733FA204643
:101D100038213246FFF72EFA9BF800202046F021AA
:101D200042F02002FFF726FAC82520462946FFF791
:101D300037FA10F0800FF8D02046C8218022FFF734
:101D400019FA20463946FFF72BFA00F00F0028B1A8
:101D500014490B68019A9B1A002B9DDB0099039A8A
:101D60008B1A9BB20093109B134410930099002987
:101D70007FF459AF054602E0002500E00546204605
:101D8000F821FFF70DFAC0F340109BF8023060F322
:101D900000038BF80230284600E0DA2007B0BDE8E7
:101DA000F08F00BF5094FF1F1010FE432DE9F04F3D
:101DB00085B00546009102929846DDF838909DF86E
:101DC0003C1001911F88009A527803920023A8F8D2
:101DD000003000998B78C3F34003002B4FF0E801EB
:101DE0000CBF10222022FFF7C5F94FF0000B284648
:101DF0005946009B1A78029BFFF79EFE064606286E
:101E000016D12846F821FFF7CBF980F01000C0F377
:101E1000001300998A7863F341028A70002B2846E8
:101E20004FF0E8010CBF10222022FFF7A3F9DEE7F4
:101E300000284DD12846C821FFF7B2F910F0040F51
:101E400045D028463021FFF7ABF90446874238BF1A
:101E5000FCB2B8F800A0CAEB070A0FFA8AFA2AEA1D
:101E6000EA7A5445B8BFA2461B4A82F800B008205F
:101E700001F0E8FD5FFA8AFA4846514601F052FE49
:101E8000D144012314490B702846C8210422FFF7CE
:101E900071F9B8F8003023449BB2A8F80030039AD7
:101EA000944201D39F420BD82846F821FFF778F9D6
:101EB000C0F3001000998B7860F341038B7007E04A
:101EC000019A002A93D0104601F05EFF8FE7F026BA
:101ED000304605B0BDE8F08F1010FE432DE9F84301
:101EE000804699460F4619B1C37C8B4203D110E05E
:101EF00000F1080412E005460224AE7EBE4205D081
:101F00000134E4B20735102CF7D13BE0002C3CD073
:101F100000E00124C4EBC40408344444002C37D04E
:101F20002368002B37D040463946FFF735FDC9F806
:101F30000000002832D083789B080F2BDDBF0122E0
:101F40009A4092B24FF40042013A089B1A804046F0
:101F5000E0213A46FFF70EF94046D821FFF720F975
:101F6000A37933B198F8B82042F002020243D2B20A
:101F700001E000F0F9024046D821FFF7FBF800200D
:101F8000BDE8F883D620BDE8F883D620BDE8F88305
:101F9000D620BDE8F883D720BDE8F883DB20BDE874
:101FA000F88300BF70B584B006461D460024039434
:101FB000ADF80A400DF10A04009403ABFFF78EFF61
:101FC00060B9BDF80A20089B00939DF82430019366
:101FD000304603992B46FFF7E9FEFFE704B070BDDA
:101FE0002DE9F04F8DB0074692461D46BDF868803A
:101FF000BDF86C60DDF870B000240894ADF81C40AA
:1020000007AB009308ABFFF769FF002840F0A480FE
:102010008DF824509DF858308DF825309DF85C30AF
:102020008DF826309DF860308DF82730BDF864308B
:10203000ADF82830ADF82A804A4C002323702220C6
:1020400001F000FD09A8082101F00EFD0123237015
:10205000384610215246BDF81C30FFF76DFD0028B0
:102060007BD1ED090495BBF1000F65D0002D53D055
:10207000089B9A7842F002029A70B8F1000F61D082
:1020800045464FF00009CDF814A0CDF80C80B846B5
:102090005F46DDF874A0ADF81E60BDF81C20009707
:1020A000CDF80490404608990DF11E03FFF77EFE1F
:1020B0000446062810D1DDF820B04046F821FFF78D
:1020C0006FF880F02000C0F340129BF8023062F3FA
:1020D00041038BF8023019E000B140E0BAF1000F83
:1020E0000ED0DAF80030D3F800C0BDF81E10039A05
:1020F000531BADF82E3050463A460DF12E03E04703
:10210000BDF81E30ED1AADB29E4218D8002DC2D1D6
:102110004746DDF814A00EE0089B9A7842F00102D1
:102120009A70BDF81C20CDF800B0384608993346A7
:10213000FFF752FD04468CB9049B2BB102E04746E1
:10214000DDF814A0A02100E0802138465246BDF8F9
:102150001C30FFF7F1FC02E001E000E020460DB08A
:10216000BDE8F08F1010FE4330B589B0062400940E
:1021700000240194012502950394049305930C9B7C
:10218000069307948023FFF72BFF09B030BD00BFF3
:1021900010B588B0062400949DF8284001940224CC
:1021A000029400240394049305930B9B06930794D5
:1021B0008023FFF715FF08B010BD00BFF0B599B040
:1021C00007460E4615461C46009308AB01930923AB
:1021D000FFF7DEFFB0B906230093019402230293B8
:1021E00000230393BDF8223004934023059308ABEA
:1021F00006931E9B0793384631462A468023FFF7F5
:10220000EFFEFFE719B0F0BD10B588B005240094CB
:10221000019300230293039304930593069307937A
:10222000FFF7DEFE04464FF4967001F0ADFD204648
:1022300008B010BD10B588B00924009401930023A4
:10224000029303930493059306930793FFF7C8FE45
:1022500008B010BD2DE9F04F99B083460F910029C9
:1022600000F0CD82C1EBC10303441B7B03F00700E8
:10227000109013F0400F00F0B682012109911391E4
:1022800001917DE2099B1493C3EBC3035B441B7B69
:1022900003F00701119113F0400F00F06482012256
:1022A0000A922DE20A9B1593C3EBC3035B441B7B8D
:1022B00003F00701129113F0400F00F01482139AFB
:1022C0000B92DDE10B9B1693C3EBC3035B441B7BBB
:1022D00003F007010D9113F0400F00F0C481019A43
:1022E00005928DE1059B1793C3EBC3035B441B7BF6
:1022F00003F00701089113F0400F00F07481DDF83E
:1023000004A05B46D3469A4636E1CDF830B0CBEB1D
:10231000CB0353441B7B03F00702049213F0400FDE
:1023200000F01D81DDF80490CDF838B0CB46DCE03C
:10233000CDF818B0CBEBCB0353441B7B03F007095C
:1023400013F0400F00F0C480DDF80480CDF81CB01D
:1023500046468EE00296C6EBC60353441B7B03F051
:10236000070813F0400F77D0019D03962E4648E0F2
:10237000AB46C5EBC50353441B7B03F0070713F0C3
:10238000400F2DD0344603E050462146FFF762FF50
:10239000631EDBB20E2B02D80F2C01D918E0344695
:1023A000C4EBC40353441B7BC3F3C203BB4208D139
:1023B0000CE0C4EBC40353441B7BC3F3C203BB4216
:1023C00004D00134E4B20F2CF3D901E0002CDBD1AE
:1023D0009AF80730BB4204BF03F1FF338AF8073095
:1023E000CBEBCB0BD3444FF000008BF80C004FF03D
:1023F00001018BF80D108BF80E000AF10403CBF8E5
:1024000008306B1EDBB20E2B03D80F2D02D9039EB2
:102410001AE03546C5EBC50353441B7BC3F3C20327
:10242000434508D10DE0C5EBC50353441B7BC3F303
:10243000C203434505D00135EDB20F2DF3D9039EFC
:1024400002E0002D94D1039E9AF80730434504BF63
:1024500003F1FF338AF80730029BC3EBC3025244F7
:10246000002111734FF00100507391730AF10403BE
:102470009360731EDBB20E2B04D80F2E03D9DDF848
:102480001CB01DE0019EC6EBC60353441B7BC3F387
:10249000C2034B4508D10EE0C6EBC60353441B7B79
:1024A000C3F3C2034B4506D00136F6B20F2EF3D963
:1024B000DDF81CB004E0002E7FF44CAFDDF81CB05A
:1024C0009AF807304B4504BF03F1FF338AF8073011
:1024D0000699C1EBC1025244002111734FF0010073
:1024E000507391730AF1040393600BF1FF33DBB275
:1024F0000E2B05D8BBF10F0F04D9DDF838B025E05D
:10250000DDF804B0CBEBCB0353441B7BC3F3C20316
:1025100004998B4209D113E0CBEBCB0353441B7BD3
:10252000C3F3C20393420BD000E0049A0BF1010BFA
:102530005FFA8BFBBBF10F0FEED9DDF838B005E089
:10254000BBF1000F7FF4F4AEDDF838B09AF8073035
:10255000049A934204BF03F1FF338AF807300C9BBF
:10256000C3EBC3025244002111734FF001005073BA
:1025700091730AF1040393600BF1FF33DBB20E2B6E
:1025800004D8BBF10F0F03D9D34623E0DDF804B024
:10259000CBEBCB0353441B7BC3F3C20308998B42A1
:1025A00009D112E0CBEBCB0353441B7BC3F3C20333
:1025B00093420AD000E0089A0BF1010B5FFA8BFB03
:1025C000BBF10F0FEED9D34604E0BBF1000F7FF44F
:1025D0009CAED3469BF80730089A934204BF03F1A0
:1025E000FF338BF80730179BC3EBC3025A4400211B
:1025F00011734FF00100507391730BF1040393605A
:1026000005994B1EDBB20E2B02D80F2902D921E00F
:10261000019A05920598C0EBC0035B441B7BC3F392
:10262000C2030D998B4209D110E0C3EBC3025A4497
:10263000127BC2F3C2028A4207D001E00D99059BCA
:102640000133DBB20F2BF0D904E00593059A002A81
:102650007FF448AE9BF807300D98834204BF03F126
:10266000FF338BF807301699C1EBC1025A440021A1
:1026700011734FF00100507391730BF104039360D9
:102680000B994B1EDBB20E2B02D80F2902D921E089
:10269000019A0B920B98C0EBC0035B441B7BC3F306
:1026A000C20312998B4209D110E0C3EBC3025A4412
:1026B000127BC2F3C2028A4207D001E012990B9B3F
:1026C0000133DBB20F2BF0D904E00B930B9A002AF5
:1026D0007FF4F8AD9BF807301298834204BF03F1F2
:1026E000FF338BF807301599C1EBC1025A44002122
:1026F00011734FF00100507391730BF10403936059
:102700000A994B1EDBB20E2B02D80F2902D921E009
:10271000139A0A920A98C0EBC0035B441B7BC3F375
:10272000C20311998B4209D110E0C3EBC3025A4492
:10273000127BC2F3C2028A4207D001E011990A9BC0
:102740000133DBB20F2BF0D904E00A930A9A002A76
:102750007FF4A8AD9BF807301198834204BF03F1C2
:10276000FF338BF807301499C1EBC1025A440021A2
:1027700011734FF00100507391730BF104039360D8
:1027800009994B1EDBB20E2B02D80F2902D921E08A
:10279000012209920998C0EBC0035B441B7BC3F381
:1027A000C20310998B4209D110E0C3EBC3025A4413
:1027B000127BC2F3C2028A4207D001E0099B109942
:1027C0000133DBB20F2BF0D904E00993099A002AF8
:1027D0007FF458AD9BF807301098834204BF03F193
:1027E000FF338BF807300F99C1EBC1025A44002127
:1027F00011730120507391730BF10403936019B0AE
:10280000BDE8F08F2DE9F04F99B08346412903D000
:10281000C37C8B4216D124E0034600F169050122F6
:10282000002114460430D9741C755975C2EBC206D8
:102830005E44B06007330132AB42F4D100238BF821
:102840000730DDE202460223907E884205D0013344
:10285000DBB20732102BF7D1D2E2002B00F0D0828E
:1028600000E001231393C3EBC3035B441B7B03F022
:1028700007000F9013F0400F00F0B682012109917C
:10288000129101917DE2099B1493C3EBC3035B4456
:102890001B7B03F00701109113F0400F00F06482DE
:1028A00001220A922DE20A9B1593C3EBC3035B44FA
:1028B0001B7B03F00701119113F0400F00F014820D
:1028C000129A0B92DDE10B9B1693C3EBC3035B449F
:1028D0001B7B03F007010D9113F0400F00F0C48142
:1028E000019A05928DE1059B1793C3EBC3035B44EB
:1028F0001B7B03F00701089113F0400F00F0748177
:10290000DDF804A05B46D3469A4636E1CDF830B0F8
:10291000CBEBCB0353441B7B03F00702049213F071
:10292000400F00F01D81DDF80490CDF838B0CB46A3
:10293000DCE0CDF818B0CBEBCB0353441B7B03F0AA
:10294000070913F0400F00F0C480DDF80480CDF8D3
:102950001CB046468EE00296C6EBC60353441B7B72
:1029600003F0070813F0400F77D0019D03962E4621
:1029700048E0AB46C5EBC50353441B7B03F0070798
:1029800013F0400F2DD0344603E050462146FFF7A8
:1029900061FC631EDBB20E2B02D80F2C01D918E0AC
:1029A0003446C4EBC40353441B7BC3F3C203BB4292
:1029B00008D10CE0C4EBC40353441B7BC3F3C20334
:1029C000BB4204D00134E4B20F2CF3D901E0002C57
:1029D000DBD19AF80730BB4204BF03F1FF338AF81A
:1029E0000730CBEBCB0BD3444FF000008BF80C003F
:1029F0004FF001018BF80D108BF80E000AF1040363
:102A0000CBF808306B1EDBB20E2B03D80F2D02D98A
:102A1000039E1AE03546C5EBC50353441B7BC3F345
:102A2000C203434508D10DE0C5EBC50353441B7BEE
:102A3000C3F3C203434505D00135EDB20F2DF3D9E1
:102A4000039E02E0002D94D1039E9AF8073043457F
:102A500004BF03F1FF338AF80730029BC3EBC302C4
:102A60005244002111734FF00100507391730AF129
:102A700004039360731EDBB20E2B04D80F2E03D910
:102A8000DDF81CB01DE0019EC6EBC60353441B7B62
:102A9000C3F3C2034B4508D10EE0C6EBC603534453
:102AA0001B7BC3F3C2034B4506D00136F6B20F2E93
:102AB000F3D9DDF81CB004E0002E7FF44CAFDDF854
:102AC0001CB09AF807304B4504BF03F1FF338AF876
:102AD00007300699C1EBC1025244002111734FF037
:102AE0000100507391730AF1040393600BF1FF33FB
:102AF000DBB20E2B05D8BBF10F0F04D9DDF838B0CF
:102B000025E0DDF804B0CBEBCB0353441B7BC3F3D0
:102B1000C20304998B4209D113E0CBEBCB0353449E
:102B20001B7BC3F3C20393420BD000E0049A0BF16A
:102B3000010B5FFA8BFBBBF10F0FEED9DDF838B05C
:102B400005E0BBF1000F7FF4F4AEDDF838B09AF881
:102B50000730049A934204BF03F1FF338AF8073029
:102B60000C9BC3EBC3025244002111734FF00100D0
:102B7000507391730AF1040393600BF1FF33DBB2DE
:102B80000E2B04D8BBF10F0F03D9D34623E0DDF899
:102B900004B0CBEBCB0353441B7BC3F3C2030899B4
:102BA0008B4209D112E0CBEBCB0353441B7BC3F325
:102BB000C20393420AD000E0089A0BF1010B5FFABE
:102BC0008BFBBBF10F0FEED9D34604E0BBF1000F36
:102BD0007FF49CAED3469BF80730089A934204BF1B
:102BE00003F1FF338BF80730179BC3EBC3025A4442
:102BF000002111734FF00100507391730BF1040326
:102C0000936005994B1EDBB20E2B02D80F2902D917
:102C100021E0019A05920598C0EBC0035B441B7B41
:102C2000C3F3C2030D998B4209D110E0C3EBC30279
:102C30005A44127BC2F3C2028A4207D001E00D99C6
:102C4000059B0133DBB20F2BF0D904E00593059A05
:102C5000002A7FF448AE9BF807300D98834204BFEA
:102C600003F1FF338BF807301699C1EBC1025A44C8
:102C7000002111734FF00100507391730BF10403A5
:102C800093600B994B1EDBB20E2B02D80F2902D991
:102C900021E0019A0B920B98C0EBC0035B441B7BB5
:102CA000C3F3C20311998B4209D110E0C3EBC302F5
:102CB0005A44127BC2F3C2028A4207D001E0119942
:102CC0000B9B0133DBB20F2BF0D904E00B930B9A73
:102CD000002A7FF4F8AD9BF807301198834204BFB7
:102CE00003F1FF338BF807301599C1EBC1025A4449
:102CF000002111734FF00100507391730BF1040325
:102D000093600A994B1EDBB20E2B02D80F2902D911
:102D100021E0129A0A920A98C0EBC0035B441B7B25
:102D2000C3F3C20310998B4209D110E0C3EBC30275
:102D30005A44127BC2F3C2028A4207D001E01099C2
:102D40000A9B0133DBB20F2BF0D904E00A930A9AF5
:102D5000002A7FF4A8AD9BF807301098834204BF87
:102D600003F1FF338BF807301499C1EBC1025A44C9
:102D7000002111734FF00100507391730BF10403A4
:102D8000936009994B1EDBB20E2B02D80F2902D992
:102D900021E0012209920998C0EBC0035B441B7B30
:102DA000C3F3C2030F998B4209D110E0C3EBC302F6
:102DB0005A44127BC2F3C2028A4207D001E00F9943
:102DC000099B0133DBB20F2BF0D904E00993099A78
:102DD000002A7FF458AD9BF807300F98834204BF58
:102DE00003F1FF338BF807301399C1EBC1025A444A
:102DF000002111730120507391730BF10403936050
:102E000019B0BDE8F08F00BF2DE9F04F99B08346AF
:102E100010F1080F00F05C838068002800F05A83EE
:102E20008BF80E30C80940F06583072A00F26283F0
:102E30009BF8130068B15C460220A57E2DB10130DD
:102E4000C0B207341028F8D154E3002800F05283B0
:102E500000E0012031B9C0EBC0000BEB00020124FF
:102E6000147310E000252C4661F3C50465F3861445
:102E700062F30204C0EBC0000BEB00021473E4B277
:102E8000002C00F029839BF81320A2420ED0594653
:102E90000222887EA04205D00132D2B20731102A28
:102EA000F7D11BE3002A00F01B8300E00122C2EBF4
:102EB000C20208321BEB020200F0148393715846E1
:102EC00000210A462346FFF79FF90E90002800F0E4
:102ED0000B83412C04D09BF81330A34218D126E079
:102EE0005B460BF169050122002114460BF1040039
:102EF000D9741C755975C2EBC2065E44B0600733C5
:102F00000132AB42F4D100238BF807300E98F2E285
:102F10005A460223917EA14205D00133DBB207322B
:102F2000102BF7D1E2E2002B00F0E28200E0012357
:102F30001393C3EBC3035B441B7B03F007010F91A7
:102F400013F0400F00F0B682012208921292009214
:102F50007DE208981490C0EBC0035B441B7B03F038
:102F60000701109113F0400F00F0648201220992D2
:102F70002DE2099B1593C3EBC3035B441B7B03F05A
:102F80000701119113F0400F00F01482129A0A9277
:102F9000DDE10A9B1693C3EBC3035B441B7B03F089
:102FA00007010C9113F0400F00F0C481009A0492C5
:102FB0008DE1049B1793C3EBC3035B441B7B03F0BE
:102FC0000701079113F0400F00F07481DDF800A0B5
:102FD0005B46D3469A4636E1CDF82CB0CBEBCB031B
:102FE00053441B7B03F00702039213F0400F00F0E1
:102FF0001D81DDF80090CDF834B0CB46DCE0CDF893
:1030000014B0CBEBCB0353441B7B03F0070913F045
:10301000400F00F0C480DDF80080CDF818B04646BF
:103020008EE00196C6EBC60353441B7B03F00708F2
:1030300013F0400F77D0009D02962E4648E0AB4635
:10304000C5EBC50353441B7B03F0070713F0400F88
:103050002DD0344603E050462146FFF7FBF8631EAF
:10306000DBB20E2B02D80F2C01D918E03446C4EB8A
:10307000C40353441B7BC3F3C203BB4208D10CE01F
:10308000C4EBC40353441B7BC3F3C203BB4204D051
:103090000134E4B20F2CF3D901E0002CDBD19AF813
:1030A0000730BB4204BF03F1FF338AF80730CBEB94
:1030B000CB0BD3444FF000008BF80C004FF0010114
:1030C0008BF80D108BF80E000AF10403CBF80830D2
:1030D0006B1EDBB20E2B03D80F2D02D9029E1AE015
:1030E0003546C5EBC50353441B7BC3F3C2034345BD
:1030F00008D10DE0C5EBC50353441B7BC3F3C203EA
:10310000434505D00135EDB20F2DF3D9029E02E003
:10311000002D94D1029E9AF80730434504BF03F175
:10312000FF338AF80730019BC3EBC30252440021EE
:1031300011734FF00100507391730AF1040393600F
:10314000731EDBB20E2B04D80F2E03D9DDF818B096
:103150001DE0009EC6EBC60353441B7BC3F3C203B2
:103160004B4508D10EE0C6EBC60353441B7BC3F3AB
:10317000C2034B4506D00136F6B20F2EF3D9DDF867
:1031800018B004E0002E7FF44CAFDDF818B09AF8C8
:1031900007304B4504BF03F1FF338AF80730059928
:1031A000C1EBC1025244002111734FF00100507372
:1031B00091730AF1040393600BF1FF33DBB20E2B22
:1031C00005D8BBF10F0F04D9DDF834B025E0DDF8E8
:1031D00000B0CBEBCB0353441B7BC3F3C203039977
:1031E0008B4209D113E0CBEBCB0353441B7BC3F3DE
:1031F000C20393420BD000E0039A0BF1010B5FFA7C
:103200008BFBBBF10F0FEED9DDF834B005E0BBF15D
:10321000000F7FF4F4AEDDF834B09AF80730039A6B
:10322000934204BF03F1FF338AF807300B9BC3EBD3
:10323000C3025244002111734FF001005073917387
:103240000AF1040393600BF1FF33DBB20E2B04D8B9
:10325000BBF10F0F03D9D34623E0DDF800B0CBEB71
:10326000CB0353441B7BC3F3C20307998B4209D1A1
:1032700012E0CBEBCB0353441B7BC3F3C20393425B
:103280000AD000E0079A0BF1010B5FFA8BFBBBF150
:103290000F0FEED9D34604E0BBF1000F7FF49CAED4
:1032A000D3469BF80730079A934204BF03F1FF33DC
:1032B0008BF80730179BC3EBC3025A4400211173EC
:1032C0004FF00100507391730BF104039360049964
:1032D0004B1EDBB20E2B02D80F2902D921E0009A37
:1032E00004920498C0EBC0035B441B7BC3F3C2038E
:1032F0000C998B4209D110E0C3EBC3025A44127BF4
:10330000C2F3C2028A4207D001E00C99049B013348
:10331000DBB20F2BF0D904E00493049A002A7FF467
:1033200048AE9BF807300C98834204BF03F1FF338B
:103330008BF807301699C1EBC1025A440021117372
:103340004FF00100507391730BF1040393600A99DD
:103350004B1EDBB20E2B02D80F2902D921E0009AB6
:103360000A920A98C0EBC0035B441B7BC3F3C20301
:1033700011998B4209D110E0C3EBC3025A44127B6E
:10338000C2F3C2028A4207D001E011990A9B0133BD
:10339000DBB20F2BF0D904E00A930A9A002A7FF4DB
:1033A000F8AD9BF807301198834204BF03F1FF3357
:1033B0008BF807301599C1EBC1025A4400211173F3
:1033C0004FF00100507391730BF10403936009995E
:1033D0004B1EDBB20E2B02D80F2902D921E0129A24
:1033E00009920998C0EBC0035B441B7BC3F3C20383
:1033F00010998B4209D110E0C3EBC3025A44127BEF
:10340000C2F3C2028A4207D001E01099099B01333E
:10341000DBB20F2BF0D904E00993099A002A7FF45C
:10342000A8AD9BF807301098834204BF03F1FF3327
:103430008BF807301499C1EBC1025A440021117373
:103440004FF00100507391730BF1040393600899DE
:103450004B1EDBB20E2B02D80F2902D921E001222C
:1034600008920898C0EBC0035B441B7BC3F3C20304
:103470000F998B4209D110E0C3EBC3025A44127B6F
:10348000C2F3C2028A4207D001E00F99089B0133C0
:10349000DBB20F2BF0D904E00893089A002A7FF4DE
:1034A00058AD9BF807300F98834204BF03F1FF33F8
:1034B0008BF807301399C1EBC1025A4400211173F4
:1034C0000120507391730BF1040393600E9812E086
:1034D000D62010E0D7200EE0D4200CE0D6200AE061
:1034E000D62008E0D62006E0002004E00E9802E096
:1034F0000E9800E0D42019B0BDE8F08F2DE9F04F10
:103500008DB00646894602921F4600218DF818109C
:1035100008238DF819309DF81A3003F0FC030F22B0
:1035200062F387038DF81A3003681B6898470446D6
:1035300000287AD0056806AB0360877107AB00935B
:10354000304600210A461223FEF70EFE25600028B1
:103550006DD1BDF824300393BDF8263004939DF857
:10356000203005939DF82180344600255FFA85FBC5
:10357000A06FF8B103681B699847D8B9A06F0368BA
:103580001B6A41469847A8B1A06F03689B690399DD
:10359000049A984728B9A06F0368DB690599984792
:1035A00040B10097304659464A46029BFEF75EFA04
:1035B000D12804D101350434102DD7D102E0BBF15C
:1035C0000F0F34D9344600255FFA85FBA06F08B38E
:1035D00003681B699847E8B9A06F03681B6A4146F6
:1035E000984760B1A06F03689B690399049A984754
:1035F00080B9A06F0368DB690599984750B90097B7
:10360000304659464A46029BFEF730FA00F0F7036F
:10361000D12B0CD101350434102DD5D1304649467B
:10362000029A3B46FFF7F0FB01E0D620FFE70DB022
:10363000BDE8F08F70B50546614B1B787BB9C8219A
:10364000FDF7AEFD10F0200F04D02846FDF7B6FDC3
:10365000202200E000222846C821FDF78BFD594BAF
:103660001B78032B25D8DFE803F009040214002699
:1036700010E01322544B1A7000261DE0524B1B78A9
:1036800003F0F003102B16D011224F4B1A700026B6
:1036900012E001264C4B1B7803F0F003102B0BD1EA
:1036A0004A4B1A68C8324A4B1A602022464B1A709D
:1036B00002E0002600E0002600242A19906F10B1D5
:1036C0000268D26890470434402CF6D13E4B1A78F9
:1036D000402A31D006D8202A1BD0302A23D0112AE4
:1036E0006CD106E0512A4DD0802A55D0502A65D1A0
:1036F00038E0002485F8B8402B19986F10B10368A2
:103700009B6898470434402CF6D112222E4B1A7035
:1037100070BD2E4B1A682E4B1B68D31A002B4DDB45
:103720003022294B1A702846E8210122FDF722FD9C
:103730004022254B1A7070BD2846E821FDF730FD68
:1037400010F0010F3AD12846D821FDF729FD40F0AD
:1037500008022846D821D2B2FDF70CFD50221A4BA0
:103760001A7070BD2846C821FDF71AFD10F0400FF1
:1037700024D05122144B1A70144B1A681432144B73
:103780001A6070BD114B1A68114B1B68D31A002BBD
:1037900014DB80220C4B1A70284600210A4633465F
:1037A000FFF7ACFE38B1D22808D00A4A1070A02228
:1037B000054B1A7070BD9022034B1A7070BD00BF8C
:1037C0000C12FE430C93FF1F4594FF1F5094FF1FE4
:1037D0004094FF1F4494FF1F30B599B003468068A2
:1037E0001C7B06230093002301932225029503915D
:1037F000802104914021059108A906910792214654
:103800001A468123FEF7ECFB19B030BD70B588B0C5
:103810000D46BDF834408668017B092000909DF874
:103820003000019002930392049405940E9B06933A
:103830000023079330462A462123FEF7D1FB08B028
:1038400070BD00BF30B589B08568047B0A20009048
:10385000019202930391002204920592069207922C
:10386000284621462123FEF7BBFB09B030BD00BF2F
:1038700010B588B0034680681B7B0B24009401922E
:103880000022029203910492059206920792194631
:103890002123FEF7A5FB08B010BD00BF2DE9F04FB6
:1038A00083B0044601910C9DAB78012B50D0017977
:1038B0002A78914242D003689B6898473EE0E2181C
:1038C0009279824203D1012818BF4FF0010CEA1807
:1038D00092788A4202D1012918BF01260133062BB2
:1038E000EDD1BCF1000F0DD123685B682046019932
:1038F00018F8012C98472368DB682046297818F8C7
:10390000012C984736B923681B69204621799BF81A
:10391000062098470137009B984507D018F8010BFF
:10392000BB46B97953464E46CC46C8E70023E95C0E
:10393000E21811710133082BF9D109E005F10208F1
:10394000274605F1080300934FF0000AD146E5E74A
:1039500003B0BDE8F08F00BF30B40368C3B1037992
:10396000C3B11488D4B10C6825784479E31A04688B
:10397000E5540379013B03711388013B13800B6805
:1039800001330B6003792BB11488002CEBD105E0D7
:10399000002004E043790371012000E0002030BCE6
:1039A000704700BF0D4B1B6813F4804F07D00C4BC2
:1039B0001A680A4BDA600B4A12681A61704743F4BE
:1039C000804141F00101054A116005490968D16053
:1039D0000449096811611360704700BF00C00240CC
:1039E0004894FF1F4C94FF1F08B5104B1A6842F40F
:1039F00080521A604FF410730D4A13604FF4007137
:103A000004321160083A13604FF03842094B1A60D3
:103A10004FF07842084B1A60084B094A1A601A683E
:103A200042F440621A60FFF7BDFF08BD3C800440CD
:103A300018B004404894FF1F4C94FF1F00C0024080
:103A400000001F80064B074A1A604FF00042DA62FE
:103A5000104358631A46D36A002BFCDA704700BF44
:103A600000C00240000C1F80F8B50C4611F0010F99
:103A700005D0451C0078FFF7E5FF013C28461D4AAC
:103A80001D4B1A60052C2ED8061964082DD10DE0A7
:103A9000184613F8027C13F8015C45EA072545F047
:103AA00010454D63013202339442F1DC864210D955
:103AB0000146114A08784B7843EA0020D36A13F094
:103AC000F00FFBD040F010435363936B02318E42F2
:103AD000F0D874B1084AD36A13F0F00FFBD0936B9F
:103AE000013CF8D1F8BD06190324831C00220249C9
:103AF000CEE7F8BD000C1F8000C00240074B084A0B
:103B00001A604FF00042DA62FF325A631A46D36AF3
:103B1000002BFCDA014B986BC0B2704700C002402A
:103B2000000C1F80F8B507460D4611F0010F05D0B7
:103B3000441CFFF7E3FF3870013D27461F4A204B26
:103B40001A60052D04D9032000231D4C1D4A02E0F4
:103B50006808F9D103E0626301338342FBDBA5EB24
:103B600040057E19B74215D23C46154A1549D36A1D
:103B700013F0F00FFBD05163936BC3F3072525704F
:103B800063700234A642F2D8FB43334423F00103AE
:103B900002331F4406EB4006BE420DD93946084A9F
:103BA000D36A13F0F00FFBD0936BC3F307200870B8
:103BB0004B7002318E42F3D8F8BD00BF000C1F805D
:103BC00000C00240FFFF0090024B1A6801321A60E9
:103BD000704700BF5094FF1F08B50D4C236813F4C5
:103BE000802F01D000F024FA236813F4806F01D0F5
:103BF00001F0E0FA236813F4006F01D001F0D8FD62
:103C0000236813F4805FE9D002F062F8E6E700BFB2
:103C10003480044008B5FFF7DFFF00BF1022014BDE
:103C20001A80704700200540704700BF024A1368A1
:103C30001844106018467047FC89FF1FEFF3138388
:103C4000ABB9EFF31083ABB9EFF3058323B10F2BBF
:103C500005D9094A985C03E04FF4807000E0002029
:103C6000EFF311833BB1834238BF184670474FF0E2
:103C7000FF30704700207047F0E300E0044B002263
:103C80001A6004490A60044A106010221A607047E2
:103C900014D0034004D0034000D0034021281ED894
:103CA0000F4B53F8303093F8802212F0FF0F08D0FA
:103CB00019B1012283F880207047012283F8002186
:103CC0007047074B03EBC000436821B11A6842F00C
:103CD00003021A6070471A6822F002021A607047E5
:103CE000D48B0000212806D8044B53F8303093F8C9
:103CF0000002C0B270470020704700BFD48B0000A4
:103D000021281CD80E4B03EBC0035B68012908D1A6
:103D10000B4A52F8302082F880124FF4A2721A60D7
:103D20007047074A52F83020002082F8800219B903
:103D30004FF480721A60704740F203121A607047A5
:103D4000D48B000072B60C4B1B680C4A12680C49ED
:103D5000096862B611F0806F02D0322B88BF013241
:103D6000C3F5BB33FF330749A1FB03039B094FF4A2
:103D70007A7000FB0230704718E000E05094FF1F9B
:103D800004ED00E0ABAAAAAA38B50546FFF7DAFFB2
:103D9000044625B938BD013D0AD004F57A74FFF711
:103DA000D1FF001BB0F57A7FF5D200F0BDFEF6E73B
:103DB00038BD00BF10B5254B4FF400021A604FF01C
:103DC00080721A604FF000721A604FF080621A60C1
:103DD0004FF000621A6000201D4B18604BF6FF7117
:103DE0000433196028231B4A136008321360083219
:103DF000136008321360083213600832136008320F
:103E00001360083213600922134C226004F58054B9
:103E100004342060043421600434236008342360B7
:103E2000143C226004F5FE24043420600B48016039
:103E30000B490B6008310B600A4B1A6000F096FECC
:103E4000FA20FFF7A1FF00F073FC10BD08E100E0CD
:103E5000048003400C8003400080034008800B4036
:103E60000C800B4000800B4030B40E4B1B7843F0AD
:103E700002020D4C04EBC20460600C48007800287C
:103E80000CBF8824C82444EA0141074D45F832108C
:103E900080F00100054A107083F00103014A13709D
:103EA00030BC7047BC94FF1F0080FF1F3595FF1F7B
:103EB00010B4431E032B11D872B60A4A52F82300DD
:103EC00050B14268074941F82320074A32F81340AD
:103ED0000188611A22F8131062B600E000205DF834
:103EE000044B7047AC94FF1F4C97FF1F0138032809
:103EF0000DD872B6074B53F820302BB1002001309B
:103F00005B68002BFBD100E0002062B67047002008
:103F1000704700BF0095FF1F38B572B601231B49DB
:103F20001B4C5A1812F8012C12F0080F24D09A00DA
:103F300054F832506DB9164B03EBC201083048609B
:103F4000144943F83210144B1A78013A1A7062B6C9
:103F500038BD42F0010254F832506DB90C4B03EBFE
:103F6000C201083048600D4943F832100A4B1A78F4
:103F7000013A1A7062B638BD0133052BD1D162B651
:103F80000022054B1A7000F037FC38BD088D000088
:103F90000080FF1F880040002A95FF1FC8004000D6
:103FA00010B4431E032B37D8400140F010001C4AC8
:103FB000104472B61B4AD25C032A09D8DFE802F02B
:103FC00019021B050830022216E00830042213E013
:103FD000154A52F823201AB9134A42F8231003E075
:103FE000124A52F823205160104A42F8231062B658
:103FF00012E0032200E005220A4CE25401F108031A
:10400000436000F00803002B0CBF8823C8230A88F4
:1040100043EA0243036062B65DF8044B704700BF99
:104020000080FF1F6894FF1F0095FF1F1095FF1F62
:104030002DE9F84FA34CDFF8E092DFF8E0A2DFF8BB
:10404000E0B22578EDB215F0040F1DD09E4B1B7821
:1040500013F0FF0F16D09D4B1B7803F0FF022BB11E
:10406000531EDBB2994A137003B900BE984B1B78FC
:1040700003F0FF0233B1531EDBB2954A13700BB944
:1040800000F0FAFC0423237015F0080F00F0E4821E
:1040900099F80030DBB21D0940F021828D4D9E0859
:1040A00005EBC6035A6855F83630C3F38303013B6A
:1040B0000C2B00F21082DFE813F0CB01CB010E02D3
:1040C0000E020E020E020E020E02E8010E020E0297
:1040D0000E020D00804913680B6052684A607F4AE7
:1040E00045F8362000227E490A607A490A618A61D1
:1040F00001217C4A11709BB240F28162934218D830
:10410000B3F5D06F2ED2B3F5817F00F01E8106D8B3
:10411000802B00F0C980822B00F0CC8066E140F259
:104120000232934200F02681B3F5A06F00F0628165
:104130005CE142F22102934200F0868107D8B3F598
:10414000086F00F0AB80B3F5106F11D04EE142F272
:104150002122934200F0418142F22132934200F049
:10416000498143E1604B5D68002D40F0188130E1EA
:10417000594B9A78544B1A70564D05F180062B6AAC
:1041800013F0800F03D0686A083800F035FB08355B
:10419000B542F4D1DFF88C8100263746534AB05837
:1041A00028B1456800F028FB0DB12846F9E7002347
:1041B0004E4973504E4AB3504E4BF05828B14568A3
:1041C00000F01AFB0DB12846F9E700234949735066
:1041D000494AB35028F8023F484BFB5C023B032B93
:1041E0000AD8DFE803F0020602060022434BDA5544
:1041F00002E00122414BDA5501370436102ECDD1B1
:1042000000223F4B1A7001253E4EDFF81C81314FD2
:1042100005EB080313F8013C06F8043B13F0080F04
:104220002DD000F0C9FA48B1A90007EB451200F102
:1042300008035360344A47F8312007E0AB000022FE
:1042400047F833202E4B1A7801321A7000F0B4FA76
:1042500058B1AB0043F0010307EBC30100F10802C2
:104260004A601E4A47F8332009E0AB0043F00103DF
:10427000002247F83320224B1A7801321A70AA0024
:1042800042F00201002347F8313042F0030247F8C0
:10429000323001351D4B9E42BAD11EE20A4B1B78CB
:1042A0001B4D2B700127AAE0194D00232B706B705A
:1042B0000227A4E0084B9B88042B37D90F22154B0B
:1042C0001A70C1E0802007403495FF1FBD94FF1F86
:1042D0003695FF1F0080FF1F2095FF1FC80040007C
:1042E0005494FF1F3595FF1F0C8D0000AC94FF1FE9
:1042F0005894FF1F0095FF1F1095FF1F6894FF1F24
:104300002A95FF1FC420074088004000D4200740A2
:104310002C95FF1FC02007409020074094200740A5
:10432000982007404A97FF1F088D0000A04A0021EF
:10433000117051709F4A12F8233013F0020F5CD0B5
:104340009B4D01232B70022759E09B4B9B8803F068
:104350007F03042B02DC984A52881AB10F22954B36
:104360001A7071E0934A12F8231021F0020102F84A
:104370002310B2E1904B9B8803F07F03042B02DCF7
:104380008D4A52881AB10F228A4B1A705CE0894A12
:1043900012F8231041F0020102F823109DE1864B30
:1043A0005E889F88854BA3F10C02114633F80C0CF4
:1043B000B04209D133F80A0CB84205D1360A032EAF
:1043C0000CBF2F7817891AE00D690C330C32002DC1
:1043D000EBD10F22774B1A7036E0794B1A68794B84
:1043E0001A60754B9A78784B1A7076E10F22714BF0
:1043F0001A7029E000273D4601E002276C4D6E4B04
:10440000DB889F4228BF1F46402F34BF3E464026D0
:1044100028463146FFF728FD3544BF1B03D13F2E08
:1044200000F2608110E0402F34BF3E46402628460F
:104430003146FFF719FD3544BF1B01D13F2E03D98B
:10444000624B1D60624B1F8001238AF8003042E0FE
:10445000594B198842F22103994212D15D4BD81D64
:1044600012F8011B03F8011F8342F9D15A4B1B6854
:10447000862B02D10F22594B1A7000200146FFF7FC
:10448000F3FC574B45F8363025E0504B1E68BEB163
:104490004F4FB7F80080B8F1400F34BF4546402574
:1044A00030462946FFF7E0FCC5EB08039BB23B8092
:1044B0000BB9402D01D1354400E00025434B1D6070
:1044C0003D4B1B88B3F5A06F05D13B4B00225A70C2
:1044D0009B788BF8003001238AF80030B9E0414E18
:1044E0009F0806EBC708D8F80420A2F10800013D98
:1044F000EDB213F0080F47D000F07EF93A4B53F8B5
:1045000025304BB35A68384941F8252003F1080299
:10451000C8F80420354A525D032A12D8DFE802F0B9
:1045200002060A0E0321314A51550AE002212F4AA0
:10453000515506E005212D4A515502E004212B4A30
:10454000515518F0080F0CBF8822C8221B8842EA78
:10455000034346F837307CE0244B5B5D032B0BD8DC
:10456000DFE803F0777702060022204B5A5570E00F
:1045700001221E4B5A556CE018F0080F0CBF0222A6
:1045800003221A4B5A5564E056F837301B0C22F8B8
:10459000083C002B55D0002322F8063C42F8043C8E
:1045A000134B53F825302BBB114B43F8250025E066
:1045B0002C95FF1FC02007402095FF1F188D00007D
:1045C0005094FF1F5C97FF1F4495FF1F5494FF1FDB
:1045D0002895FF1F5397FF1F5497FF1FBD94FF1F80
:1045E000C80040000080FF1F0095FF1F6894FF1F58
:1045F000AC94FF1F3F4B53F8253058603D4B43F8B8
:1046000025003D4B33F8151032F8082C0A4423F8E6
:10461000152000F0D1F860B100F10803C8F80430AB
:1046200018F0080F354B364A08BF134646F83730A6
:104630000FE0002346F83730324B1A7801321A70F7
:1046400007E018F0080F2D4B2D4A08BF134646F817
:10465000373008232370F4E415F0010F22D02A49E3
:1046600002230B700022294B1A70294B2448186032
:10467000284C5C6098602848D8601A619A610D20C7
:10468000264B1870FF232648037008380370183033
:104690000270244A13709F22234B1A7001230B705F
:1046A000BDE8F88F15F0800F05D00D221B4B1A7056
:1046B0008022403B1A7015F0020F06D0184B1A7872
:1046C000D2B21A700222083B1A7015F0100F0ED0E9
:1046D0001022164B1A70BDE8F88F00200146FFF734
:1046E000C3FBB1E628460021FFF7BEFBACE6BDE800
:1046F000F88F00BF5894FF1F4C97FF1FC800400061
:10470000880040002A95FF1F94200740BC94FF1F9B
:104710000080FF1F6C94FF1FC094FF1FC020074044
:10472000882007408C2007408420074080200740D5
:1047300008B501F041FB00231B491A465A50C8181E
:1047400042600833882BF9D1184B1A6842F4802252
:104750001A60154BC3F30721154A1170C3F30741C3
:10476000143211701B0E04321370FF23343A13708D
:1047700008321370783A13700123843213700021C9
:104780006C3211707C3A137070220A4B1A704FF41D
:104790000072A3F241331A60102203F1C04303F503
:1047A000C8231A7008BD00BF0080FF1F348004407A
:1047B0009C20074049E400E072B60D4B1A68B2FA3B
:1047C00082F30B2B02D962B6002070474FF00041F4
:1047D000D94022EA010206490A6062B6054903EBA4
:1047E000C303DB00C8180022CA504260704700BFF4
:1047F000008AFF1F0084FF1F08B50F4BC31A0F4A22
:10480000A2FB03131B090B2B14D80D4A12783AB1E3
:104810000C4A127812F0FF0F02D0FFF77DFB08BDA3
:1048200072B6094A4FF0004121FA03F311681943A7
:10483000116062B608BD00BF0084FF1F398EE338E7
:104840002A95FF1F3495FF1F008AFF1F10B5134BD9
:104850001B6853B9124B1B7813F0FF0F18D00320BD
:10486000FFF726FB0D4B1860A8B10C4B1868438866
:104870005A1C03441C7A03889A4206D3FFF7BCFFF4
:104880000022064B1A60204610BD4280204610BD13
:104890004FF0FF3010BD4FF0FF3010BD4095FF1FAF
:1048A0003495FF1F08B50D4B1B6883B90C4B1B7863
:1048B00013F0FF0F08D00320FFF7FAFA074B186038
:1048C00028B94FF0FF3008BD4FF0FF3008BD034B53
:1048D0001B685A881344187A08BD00BF4095FF1F13
:1048E0003495FF1F044B9888044B1B681BB11A8832
:1048F0005B88D31A184470474C97FF1F4095FF1FE1
:104900002DE9F04704460122374B1A700E46002964
:1049100064D0DFF8E080DFF8E0909A46334FD8F8B3
:10492000003083BB99F8003013F0FF0F06D100224E
:104930002D4B1A704FF0FF30BDE8F0874AF2F92591
:104940000420FFF7D3FA07280AD801238AF8003099
:10495000FFF732FFC8F80000A8B900238AF800303A
:10496000013D01D03B7833B10122204B1A704FF04A
:10497000FF30BDE8F08700F0D7F899F8003013F069
:10498000FF0FDDD1D3E700233B70D8F800104A8831
:10499000C2F14005AE4238BF354602F108030B4470
:1049A0002A444A80761B3DB1254414F8012B03F8B4
:1049B000012BAC42F9D100E025464B883F2B07D9AB
:1049C00040230B800420FFF7EBFA0023C8F80030E7
:1049D0000522074B1A700EB12C46A0E70020024BAF
:1049E0001870BDE8F08700BF3795FF1F3C95FF1F8B
:1049F0003695FF1F3895FF1F3495FF1F00B583B014
:104A000002AB03F8010D18460121FFF779FF03B04F
:104A10005DF804FB10B5144B1B7813F0FF0F21D089
:104A20000122124B1A70124B196851B10024114B1C
:104A30001C704B880B800420FFF7B2FA0C4B1C60F3
:104A40000DE0FFF7B9FE014630B10022094B1A70A4
:104A50000420FFF7A5FA02E00122064B1A7000229B
:104A6000024B1A7010BD00BF3495FF1F3795FF1F12
:104A70003895FF1F3695FF1F08B50E4B1B7813F0B6
:104A8000FF0F16D10C4B196841B14B880B800420E5
:104A9000FFF786FA0022084B1A6008BDFFF78CFE6C
:104AA000014618B10420FFF77BFA08BD0122034B31
:104AB0001A7008BD3795FF1F3895FF1F3695FF1FE9
:104AC00008B5FCF73FFCFCF77DFA00F02DF8FAE79B
:104AD00008B5FFF707FF08BD08B5FFF7B7FE08BD2B
:104AE00008B5FFF7DFFE08BD08B5FFF793FF08BD67
:104AF00008B50846FFF782FF08BD00BF08B50846A5
:104B00001146FFF7FDFE08BD704700BF044B0022B1
:104B10001A714FF47A7199601A73024A1A607047D9
:104B20004895FF1FF08C000008B50F4B1B78CBB9E0
:104B300001220D4B1A70FFF7D5FE08B1FFF7E4FF15
:104B400000F0AEFA08B101F001FA00F0A7FD08B1DB
:104B500001F092FA01F046F808B101F023FB0022BF
:104B6000014B1A7008BD00BF5895FF1F60223A4BD9
:104B70001A70E12201331A70384B1B78082B10D1C0
:104B8000012203F1804303F56C331A601323344987
:104B90000B6001F5FF2101F2FC710A60314A1360DC
:104BA0001FE00A2B0DD139222F4B1A6013232C49F9
:104BB0000B6001F5FF2101F2FC710A60294A1360C4
:104BC0000FE00C2B0CBF35223D22274B1A6012231D
:104BD00023490B6001F5FF2101F2FC710A60214AB3
:104BE0001360224B1B7833B10123214A136002F575
:104BF0000022136005E000231D4A136002F5002225
:104C000013601C4B1B78012B06D880231A4A1360B3
:104C100002F5002213601AE0042B06D88423164AFA
:104C2000136002F50022136011E0082B06D88523DB
:104C3000114A136002F50022136008E0102B94BFA4
:104C4000862387230C4A136002F500221360012299
:104C50000A4B1A70704700BF00400740048AFF1FCC
:104C60000CB003400CB00B4008B003405A95FF1F36
:104C700020B00340058AFF1F24B003405995FF1F51
:104C800030B40023B0FBF2F402FB14041D46092CDF
:104C900094BF30343734E4B2CC54B0FBF2F008B1F6
:104CA0000133EFE70D4400226A70934207DD885C10
:104CB000CC5C8C54C8540132013B9A42F7DB084665
:104CC00030BC7047194B1A6842F480621A600023A6
:104CD000174A1370174A1370174A1370174A137044
:104CE000174A137040F21332164B1A604FF4517288
:104CF00004331A60C0F34432134B1A70C0F34712E6
:104D00005A7000F01F00987204229A700221D97420
:104D10005A7588221A743C22DA7040220B4B1A70A2
:104D20004FF40052A3F229331A60704734800440D4
:104D3000E495FF1F6195FF1FEC95FF1FE595FF1F91
:104D40006095FF1F40A0044000A006402DE400E055
:104D5000164B9B7803F0EC0300F00302134310F0B2
:104D6000040F18BF43F01003104A937000F00F03B4
:104D7000042B04D11346927942F040029A710B4BF6
:104D80005A7902F0EF0210F0100F18BF42F0100233
:104D9000064B5A719B7903F0EF0310F0200F18BFF8
:104DA00043F01003014A9371704700BF00A0064012
:104DB00010B5144B1B6813F4806F21D0124B1B7875
:104DC00013F0FF0F06D0104CFFF7AEFE237813F060
:104DD000FF0FF9D14FF400520C4B1A6000230C4A1C
:104DE000D37040F203120B490A6004310A600A4A88
:104DF00013700A4A13700A4B1B680BB101221A7018
:104E000010BD00BF348004406095FF1F84E100E0C6
:104E100000A0064040A00440E495FF1F6195FF1FDD
:104E20005C95FF1F10B50446094A137813F0FF0F75
:104E3000FBD120460121FEF763FF20460021FEF74B
:104E40002DFF044B53F83420034B1A6010BD00BFF4
:104E50006095FF1FD48B0000E895FF1F10B50D4B28
:104E60001B6813F4806F12D021280CD80A4C0B4B0E
:104E700053F8303023600121FEF742FF23680022FF
:104E80001A70012010BD0020034B186010BD0020D7
:104E900010BD00BF348004405C95FF1FD48B000020
:104EA000114B1B6813F4806F1BD0122804D140F201
:104EB00002320E4B1A600DE0142804D140F2023287
:104EC0000B4B1A6006E00B4B5A7B02F0FE025A7342
:104ED00000207047074B5A7B42F001025A730120B1
:104EE00070470020704700BF348004400CA004408D
:104EF00014C0044000A006402DE9F04107461F4BB6
:104F00001B6813F4806F37D01D4B1B680BB1012257
:104F10001A701C4B1C780134402C28BF00241A4DF9
:104F20001A4EDFF86C8017E0FEF788FE40280FDC91
:104F3000337913F0800F0FD02B780133402B28BF2B
:104F4000002318F80320D2B2F271DBB22B7003E019
:104F5000FF2801DDFFF7E8FD2B78DBB29C42E3D0B0
:104F6000FFB20B4B1F5501220A4B1A70E4B2054BDE
:104F70001C70BC22054BDA70BDE8F081348004401F
:104F8000E895FF1FEC95FF1FE595FF1F00A0064069
:104F90006495FF1F6095FF1F2DE9F84F0746284BCA
:104FA0001B6813F4806F49D0264B1B680BB101229C
:104FB0001A7007EB010B5F453DD2DFF89890224E47
:104FC000DFF88C80DFF890A099F800400134402C85
:104FD00028BF00243578EDB2A54220D1BC2388F843
:104FE0000330FEF72BFE402811DC98F8043013F054
:104FF000800F10D033780133402B28BF00231AF8DC
:105000000320D2B288F80720DBB2337003E0FF2818
:1050100001DDFFF789FD3378DBB29D42E1D017F85F
:10502000013B0AF804300122084B1A70E4B289F8F7
:1050300000405F45C8D1BC22054BDA70BDE8F88F4F
:1050400034800440E895FF1FE595FF1F6095FF1F22
:1050500000A00640EC95FF1F6495FF1F10B5064B9E
:105060001B7813F0FF0F06D0034CFFF75DFD23788C
:1050700013F0FF0FF9D110BD6095FF1F064B1B7891
:10508000DBB2064A1278D2B293422CBF3F3202F111
:10509000FF32D01A704700BFEC95FF1FE595FF1F48
:1050A000054B1878C0B2054B1B78DBB2984238BF6D
:1050B0004030C01A704700BFE495FF1F6195FF1F85
:1050C00010B4184B1A78D2B2174B1B78DBB29A4245
:1050D00018D001333F2B18D81449C85CC0B2DCB2D9
:1050E00011490C7012490968C9B19A4203D300E012
:1050F0000023D31A01E04032D31A1A2B0FDC00230D
:105100000B700CE04FF0FF3009E0084B1878C0B28C
:105110000021054B1970064B19680029E8D15DF88C
:10512000044B7047E495FF1F6195FF1FA495FF1F77
:105130005C95FF1F094B1A78D2B2094B1B78DBB282
:105140009A4207D00133402B28BF0023054AD05C88
:10515000C0B270474FF0FF30704700BFE495FF1FAB
:105160006195FF1FA495FF1F0D4B1B6813F4806F03
:1051700014D00C4BDA7802F0CB02DA7040225A7469
:10518000DA7842F03402DA70074B1A78D2B2074B61
:105190001A70074B1B680BB100221A70704700BFD2
:1051A0003480044000A006406195FF1FE495FF1F76
:1051B0005C95FF1F70B43D4B1B7913F0300F33D05B
:1051C00072B63A4B9B7D03F0FF022BB9374BDA796D
:1051D00040225A7462B627E062B6354B1978C9B2DC
:1051E000344B1C78E4B2314D334EEB79D8B24B1CC2
:1051F000402B28BF0023A3421CBFF0541946531E66
:1052000013F0FF02F1D1CAB2294B1A702B4B1B6865
:1052100053B1A1422EBFC4EB0101C4F140040919EE
:105220002729C4BF01221A70204BDA78D2B212F0BB
:10523000800F27D01B7913F0800F23D0204B1C78D0
:10524000E4B2204B1B78DBB29C4210D017491E4DB4
:1052500001E0A3420BD00133402B28BF0023087983
:10526000E85CC0B2C871087DC0B20728F1D9DBB2D2
:1052700014490B700D4B1B7913F0800F02D07C2169
:105280000A4BD97012F0400F0ED0084B1B7913F067
:10529000400F09D000220D4B1A700D4B1B6803B153
:1052A0001A703C22014BDA7070BC704700A00640B7
:1052B000E495FF1F6195FF1FA495FF1F5C95FF1FDD
:1052C000EC95FF1FE595FF1F6495FF1F6095FF1F7D
:1052D000E895FF1F194B1A6842F400621A60002318
:1052E000174A1370174A1370174A1370174A13702E
:1052F000174A137040F21332164B1A604FF4517272
:1053000004331A60C0F34432134B1A70C0F34712CF
:105310005A7000F01F00987204229A700221D9740A
:105320005A7588221A743C22DA7040220B4B1A708C
:105330004FF40042A3F22B331A60704734800440CC
:105340006096FF1FF595FF1F6896FF1F6196FF1F70
:10535000F495FF1F0CB0044000B006402FE400E0BD
:10536000164B9B7803F0EC0300F00302134310F09C
:10537000040F18BF43F01003104A937000F00F039E
:10538000042B04D11346927942F040029A710B4BE0
:105390005A7902F0EF0210F0100F18BF42F010021D
:1053A000064B5A719B7903F0EF0310F0200F18BFE2
:1053B00043F01003014A9371704700BF00B00640EC
:1053C00010B5144B1B6813F4006F21D0124B1B78DF
:1053D00013F0FF0F06D0104CFFF7A6FB237813F055
:1053E000FF0FF9D14FF400420C4B1A6000230C4A16
:1053F000D37040F203120B490A6004310A600A4A72
:1054000013700A4A13700A4B1B680BB101221A7001
:1054100010BD00BF34800440F495FF1F84E100E01C
:1054200000B006400CB004406096FF1FF595FF1FCA
:10543000F095FF1F10B50446094A137813F0FF0FCB
:10544000FBD120460121FEF75BFC20460021FEF740
:1054500025FC044B53F83420034B1A6010BD00BFE9
:10546000F495FF1FD48B00006496FF1F10B50D4B01
:105470001B6813F4006F12D021280CD80A4C0B4B78
:1054800053F8303023600121FEF73AFC23680022F4
:105490001A70012010BD0020034B186010BD0020C1
:1054A00010BD00BF34800440F095FF1FD48B000076
:1054B0000D4B1B6813F4006F13D017280AD140F26C
:1054C00002320A4B1A600A4B5A7B42F001025A73AD
:1054D00001207047064B5A7B02F0FE025A730020EF
:1054E00070470020704700BF3480044008B004407B
:1054F00000B006402DE9F04107461F4B1B6813F42E
:10550000006F37D01D4B1B680BB101221A701C4B6A
:105510001C780134282C28BF00241A4D1A4EDFF8BD
:105520006C8017E0FEF78AFB40280FDC337913F01C
:10553000800F0FD02B780133282B28BF002318F8B9
:105540000320D2B2F271DBB22B7003E0FF2801DD41
:10555000FFF7EAFA2B78DBB29C42E3D0FFB20B4BA9
:105560001F5501220A4B1A70E4B2054B1C70BC2275
:10557000054BDA70BDE8F081348004406496FF1F6B
:105580006896FF1F6196FF1F00B00640F895FF1F49
:10559000F495FF1F2DE9F84F0746284B1B6813F4BD
:1055A000006F49D0264B1B680BB101221A7007EB24
:1055B000010B5F453DD2DFF89890224EDFF88C80DA
:1055C000DFF890A099F800400134282C28BF00246F
:1055D0003578EDB2A54220D1BC2388F80330FEF720
:1055E0002DFB402811DC98F8043013F0800F10D008
:1055F00033780133282B28BF00231AF80320D2B2B6
:1056000088F80720DBB2337003E0FF2801DDFFF7E5
:105610008BFA3378DBB29D42E1D017F8013B0AF8F0
:1056200004300122084B1A70E4B289F800405F454B
:10563000C8D1BC22054BDA70BDE8F88F3480044035
:105640006496FF1F6196FF1FF495FF1F00B0064090
:105650006896FF1FF895FF1F10B5064B1B7813F0D7
:10566000FF0F06D0034CFFF75FFA237813F0FF0F0C
:10567000F9D110BDF495FF1F064B1B78DBB2064A2B
:105680001278D2B293422CBF273202F1FF32D01AE5
:10569000704700BF6896FF1F6196FF1F054B187883
:1056A000C0B2054B1B78DBB2984238BF4030C01AFD
:1056B000704700BF6096FF1FF595FF1F10B4184B91
:1056C0001A78D2B2174B1B78DBB29A4218D001334A
:1056D0003F2B18D81449C85CC0B2DCB211490C7019
:1056E00012490968C9B19A4203D300E00023D31AD2
:1056F00001E04032D31A1A2B0FDC00230B700CE0B0
:105700004FF0FF3009E0084B1878C0B20021054B7C
:105710001970064B19680029E8D15DF8044B7047F1
:105720006096FF1FF595FF1F2096FF1FF095FF1F46
:10573000094B1A78D2B2094B1B78DBB29A4207D0D8
:105740000133402B28BF0023054AD05CC0B270470C
:105750004FF0FF30704700BF6096FF1FF595FF1FA9
:105760002096FF1F0D4B1B6813F4006F14D00C4BD9
:10577000DA7802F0CB02DA7040225A74DA7842F01A
:105780003402DA70074B1A78D2B2074B1A70074B03
:105790001B680BB100221A70704700BF34800440B0
:1057A00000B00640F595FF1F6096FF1FF095FF1FA4
:1057B00070B43D4B1B7913F0300F33D072B63A4BB7
:1057C0009B7D03F0FF022BB9374BDA7940225A74E4
:1057D00062B627E062B6354B1978C9B2344B1C78F3
:1057E000E4B2314D334EEB79D8B24B1C402B28BF7D
:1057F0000023A3421CBFF0541946531E13F0FF02AE
:10580000F1D1CAB2294B1A702B4B1B6853B1A1427C
:105810002EBFC4EB0101C4F1400409192729C4BFFC
:1058200001221A70204BDA78D2B212F0800F27D002
:105830001B7913F0800F23D0204B1C78E4B2204B4F
:105840001B78DBB29C4210D017491E4D01E0A342E9
:105850000BD00133282B28BF00230879E85CC0B2A5
:10586000C871087DC0B20728F1D9DBB214490B70AA
:105870000D4B1B7913F0800F02D07C210A4BD9709D
:1058800012F0400F0ED0084B1B7913F0400F09D0D7
:1058900000220D4B1A700D4B1B6803B11A703C228D
:1058A000014BDA7070BC704700B006406096FF1F75
:1058B000F595FF1F2096FF1FF095FF1F6896FF1FAD
:1058C0006196FF1FF895FF1FF495FF1F6496FF1F59
:1058D000174B1A6842F480521A600023154A13705D
:1058E000154A1370154A1370154A1370154A137030
:1058F00040F21331144A11604FF4517104321160B7
:10590000C0F34431114A1170C0F34711517000F0D7
:105910001F009072937013742C23D37040220C4B91
:105920001A704FF40032A3F22D331A60704700BF93
:1059300034800440DC96FF1F7196FF1FE496FF1F22
:10594000DD96FF1F7096FF1F08C0044000C0064090
:1059500031E400E0164B9B7803F0EC0300F0030207
:10596000134310F0040F18BF43F01003104A937054
:1059700000F00F03042B04D11346927942F0400249
:105980009A710B4B5A7902F0EF0210F0100F18BF0A
:1059900042F01002064B5A719B7903F0EF0310F0AE
:1059A000200F18BF43F01003014A9371704700BFE6
:1059B00000C0064010B5144B1B6813F4805F21D063
:1059C000124B1B7813F0FF0F06D0104CFFF7ACF80A
:1059D000237813F0FF0FF9D14FF400320C4B1A600B
:1059E00000230C4AD37040F203120B490A600431C1
:1059F0000A600A4A13700A4A13700A4B1B680BB1FB
:105A000001221A7010BD00BF348004407096FF1F41
:105A100084E100E000C0064008C00440DC96FF1F9F
:105A20007196FF1F6C96FF1F10B50446094A137844
:105A300013F0FF0FFBD120460121FEF761F920464C
:105A40000021FEF72BF9044B53F83420034B1A6066
:105A500010BD00BF7096FF1FD48B0000E096FF1FA3
:105A600010B50D4B1B6813F4805F12D021280CD8A1
:105A70000A4C0B4B53F8303023600121FEF740F9FC
:105A8000236800221A70012010BD0020034B18600B
:105A900010BD002010BD00BF348004406C96FF1F75
:105AA000D48B00000D4B1B6813F4805F13D00E28BD
:105AB0000AD140F202320A4B1A600A4B5A7B42F07A
:105AC00001025A7301207047064B5A7B02F0FE0216
:105AD0005A73002070470020704700BF3480044094
